:020000040800F2
:100000004805002001010008BF1F0008631900080F
:10001000BD1F0008A10300087121000800000000B6
:10002000000000000000000000000000C31F0008E6
:10003000A303000800000000C11F0008C51F00083E
:100040001B0100081B0100081B0100081B01000820
:100050001B0100081B0100081B0100081B01000810
:100060001B0100081B0100081B0100081B01000800
:100070001B0100081B0100081B0100081B010008F0
:100080001B0100081B0100081B0100081B010008E0
:100090001B0100081B0100081B0100081B010008D0
:1000A0001B0100081B0100081B0100081B010008C0
:1000B0001B0100081B0100081B0100081B010008B0
:1000C0001B0100081B0100081B0100081B010008A0
:1000D0001B0100081B0100081B0100081B01000890
:1000E0001B0100081B0100081B010008DFF80CD0F1
:1000F00000F032F800480047B12100084805002010
:100100000648804706480047FEE7FEE7FEE7FEE7B1
:10011000FEE7FEE7FEE7FEE7FEE7FEE73D2000081C
:10012000ED000008D2B201E000F8012B491EFBD21D
:1001300070470022F6E710B513460A4604461946F2
:10014000FFF7F0FF204610BD421C10F8011B0029EC
:10015000FBD1801A70470000064C074D06E0E068AE
:1001600040F0010394E8070098471034AC42F6D3FE
:10017000FFF7C0FFC8230008E823000830B516A029
:1001800087B00068039015A001240068049014A0B3
:100190004FF47A750068059003A88DE83100234676
:1001A0000B2290210F4800F05DFE142000F054FB5C
:1001B00004A88DE83100012311229021094800F0A4
:1001C00051FE05A88DE8310001230F22902105483A
:1001D00000F048FE07B030BDCB000000C0000000BA
:1001E000100000006400002070B5044600688168BB
:1001F000C943C90717D1816821F00101816000F06E
:100200003FFC05460AE000BF00F03AFC401B022814
:1002100004D920688068C043C00706D02068806881
:10022000C043C007F0D0002070BDA06A40F01000AD
:10023000A062E06A40F00100E062012070BD0000B1
:10024000F8B500260446009600688168C943C907CE
:100250002DD0816841F0010181601648164900687F
:10026000B0FBF1F000E0401E00900028FBD100F050
:1002700007FC054616E000BF00F002FC401B022808
:1002800010D920688068C043C0070BD0A06A40F036
:100290001000A062E06A40F00100E06284F824608F
:1002A0000120F8BD20688068C043C007E4D1002069
:1002B000F8BD00001000002040420F002DE9F0477B
:1002C0000FF294090FF2980828A72BA62DA530A4A9
:1002D0004846FFF739FF82B24FF6FF7A5346494648
:1002E0002E4801F0F1FA4046FFF72EFF82B2534646
:1002F00041462A4801F0E8FA4846FFF725FF82B256
:1003000053464946254801F0DFFA3846FFF71CFFFF
:1003100082B253463946214801F0D6FA2846FFF703
:1003200013FF82B2534629461C4801F0CDFA2046FD
:10033000FFF70AFF82B253462146184801F0C4FA7B
:100340003046FFF701FF53463146BDE8F04782B221
:10035000124801F0B9BA00002B2B2B610D0A0000E6
:1003600041542B4D4F44453D530D0A0041542B4CF5
:10037000494E4B0D0A00000041542B454E544D0D83
:100380000A00000041542B574D4F44453D300000BA
:1003900041542B5350443D48494748000001002038
:1003A000FEE7704772B6FEE7F8B50024009490F8B7
:1003B00024202546012A12D0012280F824204A68F0
:1003C0001F23072A0DD20668776B521E02EB8202AA
:1003D00093409F430B6893401F43776319E00220CB
:1003E000F8BD06680D2A0AD2376BD21F02EB8202D3
:1003F00093409F430B6893401F43376309E0F76ABC
:100400000D3A02EB820293409F430B6893401F43D7
:10041000F7620A68072306680A2A0AD3F7680A3AC5
:1004200002EB420293409F438B6893401F43F76067
:1004300008E0376902EB420293409F438B68934088
:100440001F4337610A68102A01D0112A20D1124BAC
:1004500002689A4217D193681B0219D4936843F437
:10046000000393600968102912D10C490C4A0968ED
:10047000B1FBF2F101EB8101490000E0491E00915E
:100480000029FBD104E0816A41F02001816201244E
:1004900080F824502046F8BD0024014010000020C0
:1004A00040420F000068C06C704700002DE9F04129
:1004B00004004FF0000514D0A06A002628B9E662B7
:1004C00084F82460204600F083F82046FFF78CFE75
:1004D000A16A01F01001014304D0A06A40F01000AD
:1004E000A0626BE0A16A21F4885141F00201A1628F
:1004F000334923688B42E16904D1B1F5402F01D122
:100500004FF40021277B4FF4807C41EA4702616869
:100510000A43A168614509D0012907D05FF00001B5
:1005200094F814E0BEF1010F02D00AE06146F7E74B
:10053000C7B1A76A47F02007A762E76A47F001073B
:10054000E7625F6827F469470F435F602368996833
:100550001C4F394011439960A16861450BD00129B6
:1005600009D00CE0DFF860E0A7690EEB47370F43D6
:1005700047F40061E5E7218A0D05A5F5801521689E
:10058000CB6A23F470032B43CB62216889680F4B3D
:100590001940914208D1E662A16A21F0020141F0BE
:1005A0000101A162BDE8F081A06A20F0020040F0E4
:1005B0001000A062E06A40F00100E0620120F1E773
:1005C000003C0140FDF7E1FF00E0FFFFFE0E1FFFD2
:1005D00000B585B00021009101910291039100685E
:1005E0000E49884218D10E48816941F40071816139
:1005F000816901F400710491816941F01001816108
:100600008069694600F0100004900F2000900320DC
:100610000190044800F032F905B000BD002401400B
:1006200000100240001001402DE9F84300270D465C
:100630000446009700F024FA804620688168C905C6
:1006400008D5A06A40F02000A06284F82470012040
:10065000BDE8F8834168C90503D4C06A10F4700F7F
:100660002AD0022000F04EFD3B490968B1FBF0F6AC
:100670002068036939490B424FEA61014FEAA11230
:100680001FD1C3684FEA611C13EA0C0F19D103692B
:100690000B4225D1C068104222D1142023E0681CEF
:1006A0000AD02DB100F0ECF9A0EB0800A84203D964
:1006B00020680068800725D5206800688007EED58F
:1006C0002DE003690B4202D1C168114206D00269D4
:1006D00023490A4206D1C068084203D1542002E0EF
:1006E000292000E0FC204643009816E0681C11D049
:1006F0002DB100F0C5F9A0EB0800A8420AD9009876
:10070000B04207D2A06A40F00400A06284F82470CE
:1007100003209DE70098401C0090B042E6D321687A
:100720006FF012000860A06A40F40070A0622068B8
:100730008068C0F3424007280CD1207B50B9A06AE2
:1007400020F48070A062A06AC00403D4A06A40F0C4
:100750000100A06200207BE71000002024499224C1
:100760004992240070B5044690F8240001280DD069
:10077000012084F824002046FFF762FD02004FF0BC
:10078000000005D084F82400104670BD022070BD22
:10079000A16A40F20123994341F48071A1621F4D87
:1007A00023681F49AB4218D10E6816F4702F14D07D
:1007B000A66A46F48016A6620E68760505D5A66A76
:1007C00026F4005646F48056A662A66AF6040AD5B8
:1007D000E66A26F00606E66206E0A66A26F48016B9
:1007E000A6625E68E9E7E06284F824006FF0020028
:1007F000186020688368C3F34243072B05D1A842E1
:1008000008D1096811F4702F04D0816841F4801177
:100810008160B9E7816841F4A001F9E7002801404F
:100820000424014010B5044690F82400012807D0A4
:10083000012084F824002046FFF7D6FC10B107E021
:10084000022010BDA16A21F4885141F00101A1628A
:10085000002184F8241010BD70B5044600F010F992
:100860000546601C02D004480078044400F008F9F2
:10087000401BA042FAD370BD040000202DE9F84FC0
:10088000DFF8C8910024A9F1040B23460F2709F1D2
:10089000040AABF1040ED1E00125A54006EA0502E9
:1008A000AA4276D1DFF8A8C14E68A6EB0C086645CF
:1008B0002BD00DDC032E34D005DC36B3012E19D03D
:1008C000022E2FD11BE0112E16D0122E2AD119E0A4
:1008D000B8F5881F19D006DCB8F5803F15D0B8F5FB
:1008E000801F1FD111E0B8F5001F0ED0B8F5041F0E
:1008F00018D10AE0CB6815E0CB681B1D12E0CB686D
:1009000008330FE0CB680C330CE08B682BB1012B64
:100910004FF0080303D0456104E0042302E00561C1
:1009200000E00023FF2A01D8064601E000F104069A
:100930004FEA840501D9A5F12005D6F8008007FA11
:1009400005FC28EA0C0803FA05F548EA0508C6F88C
:1009500000804D68ED0070D53E4DAE6946F0010651
:10096000AE61AD6924F0030605F0010500953A4D2E
:1009700006EB050CDCF80850A607360F07FA06F858
:1009800025EA0805DFF8D480404503D14FF0000880
:1009900025E052E0DFF8C880404502D14FF0010861
:1009A0001DE0DFF8C080404502D14FF0020816E09C
:1009B000DFF8B480404502D14FF003080FE0DFF8C4
:1009C000AC80404502D14FF0040808E0DFF8A08079
:1009D000404502D14FF0050801E04FF0060808FA43
:1009E00006F848EA0508CCF808804D68D9F8006098
:1009F000ED024D4601D5164300E096432E604D684A
:100A0000DAF80060AD02554601D5164300E0964382
:100A10002E604D68DBF80060AD035D4601D51643DE
:100A200000E096432E604D68DEF80060ED037546E9
:100A300001D5164300E096432E60641C0A681646F2
:100A4000E2407FF429AFBDE8F88F000008040140C0
:100A50000000111000100240000001400008014099
:100A6000000C01400010014000140140001801403A
:100A7000001C01400AB1016170470904FBE7000056
:100A800001488068704700000400002070B5040031
:100A900025D094F83D00002520B984F83C5020462C
:100AA00000F078FA242084F83D002068016821F0E5
:100AB000010101602068016841F400410160206883
:100AC000016821F40041016000F084FC4D4A616836
:100AD000914201D84C4900E04C49884201D20120A2
:100AE00070BD4B492368B0FBF1F15E6826F03F060C
:100AF0000E435E606368934206D94FF49673594380
:100B00004FF47A73B1FBF3F12368491C1E6A26F097
:100B10003F06314319626168914210D84900401E76
:100B2000B0FBF1F2521CC2F30B02042A01D20420E2
:100B300022E0B0FBF1F0401CC0F30B001CE0A26807
:100B4000F2B301EBC10303EB0116431EB3FBF6F353
:100B50005B1C43F480431B0549D092B301EBC102F7
:100B600002EB0111401EB0FBF1F0401CC0F30B0082
:100B700040F4804040F400402168CA694CF6FF739D
:100B80009A431043C861D4E9071001432068026802
:100B900022F0C00211430160D4E90301014320683F
:100BA000826848F2FF339A4311438160D4E905011A
:100BB00008432168CA6822F0FF021043C86001E0C0
:100BC0000EE016E02068016841F001010160256433
:100BD000202084F83D00256384F83E50002070BD3D
:100BE00001EB4106431EB3FBF6F35B1CB3E70120A8
:100BF000C2E701EB4101401EB0FBF1F0401CC0F325
:100C00000B00B7E7A086010080841E0000093D00AC
:100C100040420F002DE9FF4F83B00025DDE9107938
:100C20009A4693460446DDF848800095FFF728FF72
:100C3000064694F83D0020287CD1192301228549DD
:100C40002046009600F0A4FF0028F5D194F83C005F
:100C500001286FD0012084F83C0020680168C90792
:100C600003D1016841F0010101602068016821F4AD
:100C700000610160222084F83D00402084F83E009D
:100C800025646762A4F82A90608D20857248E0622E
:100C9000CDE9008653465A462046049900F07AFE74
:100CA00000287DD1208DDFF8B491202768B101287C
:100CB00014D00228206801681ED041F480610160D0
:100CC0002068416980690090B6E0206841698169C7
:100CD0000091016841F400710160ADE02068016895
:100CE00021F48061016072B62068416981690091D8
:100CF000016841F400710AE041F40061016072B6DC
:100D00002068416981690091016821F48061016076
:100D100062B691E0032868D801280CD00228434627
:100D20004FF000024946204600960FD000F030FFF9
:100D3000B0BB10E08BE032464146204600F0CEFFCB
:100D400070BB20680069616A08706CE000F020FFE9
:100D500030BB72B634E02068016821F48061016024
:100D600072B620680069616A0870606A401C60623F
:100D7000208D401E2085608D401E6085384846F2DB
:100D8000A8110068B0FBF1F0C0EBC00000EB8000E0
:100D90000090401E009008D020684069C04300E0E9
:100DA00029E040070CD50098F3E744F8305F6773FB
:100DB000A573206940F02000206162B625731AE017
:100DC0002068016841F40071016020680069616A6F
:100DD0000870606A401C6062218D491E2185618D0A
:100DE000491E618562B621681BE0324641462046B5
:100DF00000F074FF18B1012007B0BDE8F08F206843
:100E00000069616A0870606A401C6062218D491E39
:100E10002185618D491E618521684A69D243520747
:100E20000AD409690170606A401C6062208D401E0E
:100E30002085608D401E6085208D00287FF46AAF7C
:100E400084F83D7084F83E5084F83C50D4E702208A
:100E5000D2E70000020010000000FFFF04000100C4
:100E6000100000202DE9FF4F83B09A46DDE911976D
:100E700093460446DDF84080FFF702FE054694F8ED
:100E80003D0020287FD119230122404920460095AA
:100E900000F07EFE002876D194F83C00012872D044
:100EA000012084F83C0020680168C90703D101686B
:100EB00041F0010101602068016821F400610160D6
:100EC000212084F83D00402084F83E00002626645E
:100ED000C4F82480A4F82A90608D20852C48E06214
:100EE000CDE9007553465A462046049900F0D0FDDE
:100EF00070B930E02A463946204600F027FF58B145
:100F0000206C042804D12068016841F4007101605C
:100F1000012007B0BDE8F08F606A216800780861A1
:100F2000606A401C6062218D491E89B22185628DF4
:100F3000521E628522685369DB435B070BD469B19B
:100F400000781061606A401C6062208D401E208520
:100F5000608D401E6085208D0028CBD12A46394601
:100F6000204600F0E9FD0028CAD154F83D0B016885
:100F700041F400710160202004F81E09E6776677CD
:100F80000020C6E7FFE70220C3E7000002001000D0
:100F90000000FFFF10B586B0002100910191029181
:100FA000039100680F4988421AD10F4CA06940F0A4
:100FB0000800A061A069694600F008000490C02004
:100FC000009012200190032003900848FFF756FC80
:100FD000E06940F40010E061E06900F40010049062
:100FE00006B010BD0054004000100240000C01404B
:100FF0000248816802781144816070470400002033
:10100000074810B5016841F010010160032000F0AD
:1010100067F80F2000F006F800F024F8002010BD5B
:101020000020024070B50D4D04464FF47A712878C7
:10103000B1FBF0F00A490968B1FBF0F000F0A0FB49
:1010400048B9102C07D200222146501E00F028F883
:1010500000206C6070BD012070BD00000400002005
:10106000100000200C4808B5816941F00101816140
:10107000816901F001010091C16941F08051C161B4
:10108000C06900F0805000900448416821F0E061A0
:1010900041F00071416008BD0010024000000140B5
:1010A000F0B40E4B1B680C46C3F30223C3F10705D3
:1010B000042D00D90425191D072901D2002300E0C1
:1010C000DB1E012606FA05F1491E214099409E408B
:1010D000761E16403143F0BC01F04BB80CED00E039
:1010E000064900F0070208684FF6FF03184040EA7F
:1010F0000220034A10430860704700000CED00E036
:101100000000FA0510B501460020284C04292FD014
:101110000BDC012930D0022929D100F06BF961687C
:10112000C1F38131491C49001FE0082920D0102952
:101130001DD161682268D20119D51D48C1F38342CF
:10114000C903805C0AD56168194AC1F34041921E07
:10115000515C184AB2FBF1F1484301E0164948439B
:101160006168490203D440000321B0FBF1F010BDD7
:10117000BDE8104000F04EB9226AC2F301210129F6
:1011800003D1920701D5C80310BD022905D1626AB7
:10119000920702D549F6404010BD0329FCD12168D1
:1011A0008903F9D54FF2244010BD00000010024021
:1011B000A023000800127A0000093D002DE9F84341
:1011C00005460078354CC00754D0E0690026C000C1
:1011D00008D4E06940F08050E061E069012600F049
:1011E000805000902E480168C90512D401688046DD
:1011F00041F480710160FFF743FC074605E000BF42
:10120000FFF73EFCC01B642823D8D8F80000C005B7
:10121000F6D5206A10F4407021D0A98801F44071FD
:1012200081421CD0206A1F49012220F440700A60CC
:1012300000220A602062C00711D0FFF721FC074698
:1012400041F2883808E000BFFFF71AFCC11B414596
:1012500002D90320BDE8F883206A8007F4D5206A0C
:10126000696820F44070084320621EB1E06920F0F4
:101270008050E0612878800705D56068A96820F46F
:101280004040084360602878C00605D560686969F9
:1012900020F48000084360600020DBE7001002407B
:1012A00000700040400442422DE9F0470F4605001F
:1012B00061D0434E306800F00700B84209D2306870
:1012C00020F0070038433060306800F00700B84273
:1012D00051D128683B4C810712D5400703D560687F
:1012E00040F4E06060602878000703D5606840F44F
:1012F000605060606068A96820F0F000084360609A
:101300002878C00728D06868012810D021680228F2
:1013100010D0890700292EDA616821F0030101430A
:101320006160FFF7ADFB804641F288390DE021682E
:101330008903EFE78901EDE7FFF7A2FBA0EB0801C6
:10134000494502D90320BDE8F0876068696800F06C
:101350000C00B0EB810FEFD1306800F00700B8420D
:101360000BD9306820F0070038433060306800F057
:101370000700B84201D00120E5E72878400705D5ED
:101380006068E96820F4E06008436060287800073E
:1013900006D56068296920F4605040EAC1006060A9
:1013A00000F038F86168084AC1F30311515CC84085
:1013B0000649086006480068FFF734FE0020C2E7CF
:1013C0000020024000100240B0230008100000205E
:1013D000080000200448054900684968044AC1F330
:1013E0000221515CC84070471000002000100240EC
:1013F000C02300080448054900684968044AC1F34D
:10140000C221515CC840704710000020001002400B
:10141000C02300080E4A51680E4801F00C03042B4B
:1014200011D0082B0FD10C48C1F38343C903C05C12
:101430000AD55168084AC1F34041921E515C054AE1
:101440005043B0FBF1F07047044948437047000037
:101450000010024000127A008E23000800093D00AF
:101460002DE9F84F040070D02078C04DC00749D056
:101470006868C0F38100012807D06868C0F3810064
:10148000022809D16868C00306D52868800339D5C9
:1014900060680028E7D035E06068B0F5803F0BD089
:1014A00010B1B0F5A02F11D0286820F4803028604A
:1014B000286820F4802002E0286840F4803028600A
:1014C000606890B1FFF7DCFA06460AE0286840F44D
:1014D00080202860F0E700BFFFF7D2FA801B642865
:1014E00073D828688003F7D50CE0FFF7C9FA0646E1
:1014F00005E000BFFFF7C4FA801B6428F0D8286815
:101500008003F7D420789A4E80074FF001094FF0FE
:10151000000839D5686810F00C0F07D06868C0F370
:101520008100022809D16868C00306D428688007B2
:1015300014D52069012808D110E02069B0B1C6F89F
:101540000090FFF79DFA074605E00AE1FFF798FAD9
:10155000C01B0228C4D828688007F7D528686169AD
:1015600020F0F80040EAC10028600DE0C6F80080D5
:10157000FFF786FA074604E0FFF782FAC01B02284D
:1015800023D828688007F7D4207800072CD579481D
:10159000A169D9B1C0F80090FFF772FA074604E0DC
:1015A000FFF76EFAC01B02280FD8686A8007F7D5CC
:1015B00071484FF4FA510068B0FBF1F0009000BFA1
:1015C0000098411E0091FAD20EE080E0C0F8008041
:1015D000FFF756FA074604E0FFF752FAC01B02284D
:1015E00075D8686A8007F7D42078400760D5E86925
:1015F0000027C00008D4E86940F08050E861E8693D
:10160000012700F0805000905C480168C90513D4A0
:101610000168834641F480710160FFF731FA824628
:1016200006E000BFFFF72CFAA0EB0A0064284ED8B2
:10163000DBF80000C005F5D5E06801280AD008B144
:10164000052813D0286A20F001002862286A20F0BB
:10165000040002E0286A40F001002862E06841F2DC
:10166000883B98B1FFF70CFA82460BE0286A40F0FD
:1016700004002862EEE700BFFFF702FAA0EB0A01C0
:1016800059455AD8286A8007F6D50CE0FFF7F8F9D3
:10169000824605E0FFF7F4F9A0EB0A0159454CD862
:1016A000286A8007F6D41FB1E86920F08050E8610D
:1016B000E06988B36968C1F38101022944D0022836
:1016C000C6F8608004D0FFF7DBF9044638E034E068
:1016D000FFF7D6F9074604E0FFF7D2F9C01B02284E
:1016E0002BD828688001F7D4206AB0F5803F05D157
:1016F0006868A16820F4003008436860D4E90801F4
:101700000843696821F4741108436860C6F8609062
:10171000FFF7B6F9044606E025E000BFFFF7B0F991
:10172000001B022809D828688001F7D51BE000BFFC
:10173000FFF7A6F9001B022802D90320BDE8F88FA5
:1017400028688001F4D40EE00128F7D06868226A86
:1017500000F48031914204D1616A00F47010884233
:1017600001D00120EAE70020E8E700000010024075
:1017700000004242800442421000002000700040FD
:1017800010B5401EB0F1807F01D3012010BD4FF095
:10179000E02460610F21601700F0EBFC0020A061E5
:1017A00007202061002010BD70B5040004D094F81B
:1017B0004100002510B106E0012070BD84F84050C2
:1017C000204600F023F8242084F841002068C168F6
:1017D00021F40051C160204600F032FC206801690C
:1017E00021F4904101612068416921F02A014161A1
:1017F0002068C16841F40051C1606564202084F80C
:10180000410084F842006563002070BD70B586B069
:101810000024009401940294039403682648254E02
:10182000022103220515B3421ED1836943F480438C
:101830008361836903F480430493836943F0040361
:10184000836180691D4E00F0040004900802CDE918
:101850000001039269463046FFF710F8CDE90054C5
:1018600069463046029420E0154EB3421FD1C36949
:1018700043F48023C361C36903F480230493836921
:1018800043F0080383618069CDE9005100F008004E
:10189000CDE903200B4D69462846FEF7EFFFE8141B
:1018A000CDE90004694628460294FEF7E7FF06B03A
:1018B00070BD0000003801400010024000080140E7
:1018C00000480040000C01402DE9F843044690F820
:1018D00041001F4616460D46202802D00220BDE8D2
:1018E000F8837DB176B100206064212084F8410046
:1018F000FFF7C6F8A6848046E684A068B0F5805F4E
:1019000002D003E00120EAE7206910B12E4600254D
:101910000EE000260CE08021204600F0EDFBA0B98F
:10192000AEB116F8010B21684860E08C401EE084DF
:10193000E08C43464FF0000200970028EBD14FF0B7
:101940004001204600F0D8FB30B10320C7E735F84E
:10195000020BC0F30800E6E7202084F841000020D5
:10196000BDE7FEE701684A69D24352050FD46FF420
:1019700080624A61002140F8301F20224273817347
:10198000026942F0040202610173012070470020E5
:10199000704700002DE9F84F0446006889460B9D0A
:1019A00001689846174641F480610160206801682B
:1019B00041F48071016000954FF0011B00225946EF
:1019C00020460A9B00F0E4F84FF4007A40B120680A
:1019D0000068C00501D5C4F840A00320BDE8F88F19
:1019E000216809F0FE0008612B46284920460A9A22
:1019F00000F016F9F0BB20684169806900902A4622
:101A000020460A9900F0A2F940B1206C04283AD18E
:101A10002068016841F40071016034E0FEB2B8F161
:101A2000010F09D02168380A08612A4620460A9920
:101A300000F08CF90028E8D1206806612A4620468B
:101A40000A9900F083F90028DFD12068016841F489
:101A50008071016000950022594620460A9B00F0E3
:101A600097F80028B3D1216809F0FF0040F0010089
:101A7000086100E007E02B46044920460A9A00F07E
:101A8000CFF80028AAD00120A8E70000020001003A
:101A90002DE9F843044600680D46DDE90897016822
:101AA0009846164641F4807101604B4600224FF083
:101AB00001112046009700F06BF848B120680068DB
:101AC000C00502D54FF4007020640320BDE8F88300
:101AD000216805F0FE0008613B464A46154920464C
:101AE00000F09EF888B920684169806900903A4604
:101AF0004946204600F02AF948B1206C042804D158
:101B00002068016841F4007101600120DEE7F5B250
:101B1000B8F1010F09D02168300A08613A464946F8
:101B2000204600F013F90028E7D120680561002065
:101B3000CCE700000200010070B516460D460446D1
:101B40001EE02046FFF70EFF08B1012070BD681CA3
:101B500016D0FEF795FF801BA84200D885B92068F3
:101B60004069C04340070BD5002044F8300F2021C6
:101B70006173A073216941F0200121612073E4E7C2
:101B800020684069C0434007DBD4002070BD0000DE
:101B90002DE9F047984617460D460446C1F307461F
:101BA000DDF820902AE000BFB8F1FF3F26D0FEF715
:101BB00067FFA0EB0901414502D8B8F1000F1DD124
:101BC0002068012E16D0806925EA00000004000C70
:101BD00012D00020B84211D1002044F8300F20214B
:101BE0006173A073216941F02001216120730120FC
:101BF000BDE8F0874069E7E70120EBE72068012EA8
:101C00000AD0806925EA00000004000C06D00020FC
:101C1000B842C9D00020EBE74069F3E70120F7E7BD
:101C20002DE9F047984616460D4604464FF0000948
:101C30004FF0200AC1F3074723E020684069C04302
:101C4000400515D42068016841F4007101602168E5
:101C50006FF480604861C4F8309084F83DA084F847
:101C60003E90216C41F00401216484F83C9021E015
:101C7000701C06D0FEF704FFA0EB0800B04203D8AA
:101C800016B1012F1FD021E02068012F15D08069E7
:101C900025EA00000004000C18D000BF44F8309F73
:101CA00084F80DA084F80E90216941F02001216193
:101CB00084F80C900120BDE8F087406925EA000017
:101CC0000004000CEAD12068406901E020688069C6
:101CD00025EA00000004000CAFD1ECE72DE9F0414B
:101CE000002590460E460446202728E04069C04360
:101CF000C0060CD454F8301B6FF01000486144F853
:101D000010596777A577206A2062257714E0FEF7DF
:101D1000B7FEA0EB0800B04200D886B92068406941
:101D2000C04340060BD544F8305F6773A573206944
:101D300040F02000206125730120BDE8F08120687B
:101D40004169C9434906D1D40020F6E770B516466B
:101D50000D4604461EE02046FFF704FE08B10120B0
:101D600070BD681C16D0FEF78BFE801BA84200D801
:101D700085B920684069C04300060BD5002044F8AF
:101D8000300F20216173A073216941F0200121618E
:101D90002073E4E720684069C0430006DBD40020DC
:101DA00070BD0000FEB50025224800950195204930
:101DB000029501608915816005730124047504266C
:101DC00006614FF460214560C0E90641FEF76EFBF5
:101DD00008B1FEF7E7FA0A208DE831006946154898
:101DE000FEF7E2FA08B1FEF7DDFA0B2000900220C0
:101DF000019069460F48FEF7D7FA08B1FEF7D2FA0C
:101E00000C2000900320019069460A48FEF7CCFAA6
:101E100008B1FEF7C7FA0D20CDE90006694605486E
:101E2000FEF7C2FA002801D0FEF7BCFAFEBD0000A2
:101E300000240140340000202DE9F04385B0002447
:101E40002E480094019402940394816941F010019A
:101E50008161816901F010010491816941F00401FF
:101E60008161816901F004010491816941F00801F7
:101E70008161816901F008010491816941F02001CB
:101E8000816180691E4F00F0200004900122102122
:101E90003846FEF7EFFD002260213846FEF7EAFDE6
:101EA000DFF86080002204214046FEF7E3FDDFF802
:101EB0005890002238214846FEF7DCFD70200125AD
:101EC0000226CDE90005CDE9024669463846FEF70F
:101ED000D5FC0420CDE90005CDE90246694640461F
:101EE000FEF7CCFC3820CDE90005CDE90246694675
:101EF0004846FEF7C3FC05B0BDE8F0830010024081
:101F00000008014000140140000C01400D4810B5CC
:101F10000B4901600C49416000211222C0E9021204
:101F20004FF48042C0E904218161C1610162FEF782
:101F3000ADFD002803D0BDE81040FEF733BA10BD58
:101F40000054004064000020A08601000C4810B539
:101F50000A4901604FF4E1314160002181600C22A7
:101F6000C160C0E904128161C161FFF71DFC002856
:101F700003D0BDE81040FEF715BA10BD003801408F
:101F8000B80000200C4810B50A4901604FF46141C7
:101F90004160002181600C22C160C0E904128161AE
:101FA000C161FFF701FC002803D0BDE81040FEF737
:101FB000F9B910BD0048004000010020FEE7FEE72F
:101FC00070477047FFF714B830B595B028216846C0
:101FD000FEF7AFF814210AA8FEF7ABF818210FA8F6
:101FE000FEF7A7F802240120049000941020059029
:101FF00000254FF46010CDE9085007946846FFF7BC
:102000002FFA08B172B6FEE70F20CDE90A0480204E
:10201000CDE90C05C0000E9002210AA8FFF744F993
:1020200008B172B6FEE70FA811950F94FFF7C6F836
:10203000002801D072B6FEE715B030BD7047000031
:1020400070B5044600680169E26821F4405111430B
:1020500001612169A0680843616908432168CA6871
:1020600041F20C639A430243CA6020684169A26945
:1020700021F44071114341611E492068884202D118
:10208000FFF7B8F901E0FFF7A5F900EBC00101EB9C
:102090000012606864218000B2FBF0F3B3FBF1F33F
:1020A0006FF018067343B2FBF0F5B2FBF0F605EBE8
:1020B0008305322303EB0515B5FBF1F5B6FBF1F60D
:1020C00005F0F00505EB0615B2FBF0F6B2FBF0F0FB
:1020D000B0FBF1F06FF01802504306EB800003EB09
:1020E0000010B0FBF1F0216800F00F002844886078
:1020F00070BD0000003801402DE9F04198461746B8
:102100000E460446069D27E0681C25D02DB1FEF73B
:10211000B7FCA0EB0800A8421ED920680C3050E89C
:10212000001F21F4D07140E80012002AF5D1206888
:10213000143050E8001F21F0010140E80012002A8D
:10214000F5D1202084F8410084F84200002084F872
:1021500040000320BDE8F0812068006836EA0000F6
:1021600004D00020B842CFD00020F3E70120F9E7E7
:10217000FEE70907090E002804DB00F1E02080F8E3
:102180000014704700F00F0000F1E02080F8141DEB
:10219000704702E008C8121F08C1002AFAD1704730
:1021A0007047002001E001C1121F002AFBD17047D7
:1021B0001FB5FEF725FFFFF707FFFFF73DFEFFF70F
:1021C000F1FDFFF7A3FEFFF7C1FEFFF7DBFEFDF712
:1021D000D5FFFEF773F842F21070FEF73DFB334E69
:1021E0000024601C00F0ACF80320FEF735FB00254E
:1021F0002F48FEF7B7FA32212D48FEF715FA2C4882
:10220000FEF750F905EB8401FF2326F81100010ABF
:102210008DF804108DF80000012201A92548FFF770
:1022200053FBFF23012269462248FFF74DFB6D1C3B
:10223000042DDDDB1E48FEF7F5FA641C042CD0DB10
:102240000125DFF8749003AFA8464FF47A764FF07B
:10225000020A4FF6FF7B01242146284600F030F8A1
:102260000120FEF7F9FACDF80090CDE901860123AF
:102270000F2290211148FEF7F5FD0520FEF7ECFA3C
:102280000097CDE901A601231A4690210B48FEF7DD
:10229000C1FC5B46022203A90648FFF715FB641C3C
:1022A000042CD9DB6D1C042DD5DB98E7140000202D
:1022B0003400002000010020010000206400002004
:1022C00070B51D4C0D46012804D0022809D0032802
:1022D0000DD11FE0012220212046FEF7CBFB00227A
:1022E00001E0002217E010212046FEF7C3FB134E49
:1022F000012D16D0022D1BD0032D1BD10122082148
:102300002046FEF7B7FB01223046BDE870400421AD
:10231000FEF7B0BB012220212046FEF7ABFB0122D5
:10232000E1E7012208212046FEF7A4FB0022EBE7AB
:102330000022E4E770BD0000000C014000140140E1
:10234000014610B51048012911D0022912D00329E5
:1023500017D0042917D1012220210446FEF78AFB59
:10236000012240212046BDE81040FEF783BB002239
:102370006021F8E7012220210446FEF77BFB0022C2
:10238000EFE70022E8E710BD000801400102020368
:102390000405060708090A0B0C0D0E0F10100102A8
:1023A00002030405060708090A0B0C0D0E0F101096
:1023B00000000000000000000102030406070809F5
:1023C0000000000001020304E823000800000020D0
:1023D0001400000092210008FC23000814000020D3
:1023E00034050000A22100080112000001000000D5
:0C23F00010000000000000000024F400B9
:04000005080000ED02
:00000001FF
